{
  "_format": "hh-sol-artifact-1",
  "contractName": "GameLogic",
  "sourceName": "contracts/GameLogic.sol",
  "abi": [
    {
      "inputs": [
        {
          "internalType": "contract IERC20",
          "name": "_currency",
          "type": "address"
        },
        {
          "internalType": "contract ohMyMinter",
          "name": "_tokenNFT",
          "type": "address"
        }
      ],
      "stateMutability": "nonpayable",
      "type": "constructor"
    },
    {
      "anonymous": false,
      "inputs": [
        {
          "indexed": true,
          "internalType": "address",
          "name": "previousOwner",
          "type": "address"
        },
        {
          "indexed": true,
          "internalType": "address",
          "name": "newOwner",
          "type": "address"
        }
      ],
      "name": "OwnershipTransferred",
      "type": "event"
    },
    {
      "inputs": [],
      "name": "auctionCount",
      "outputs": [
        {
          "internalType": "uint256",
          "name": "",
          "type": "uint256"
        }
      ],
      "stateMutability": "view",
      "type": "function"
    },
    {
      "inputs": [],
      "name": "auctionMaxDuration",
      "outputs": [
        {
          "internalType": "uint256",
          "name": "",
          "type": "uint256"
        }
      ],
      "stateMutability": "view",
      "type": "function"
    },
    {
      "inputs": [],
      "name": "auctionsStartDate",
      "outputs": [
        {
          "internalType": "uint256",
          "name": "",
          "type": "uint256"
        }
      ],
      "stateMutability": "view",
      "type": "function"
    },
    {
      "inputs": [],
      "name": "basePrice",
      "outputs": [
        {
          "internalType": "uint256",
          "name": "",
          "type": "uint256"
        }
      ],
      "stateMutability": "view",
      "type": "function"
    },
    {
      "inputs": [],
      "name": "buy",
      "outputs": [],
      "stateMutability": "nonpayable",
      "type": "function"
    },
    {
      "inputs": [
        {
          "internalType": "uint256",
          "name": "_id",
          "type": "uint256"
        }
      ],
      "name": "checkMaySell",
      "outputs": [
        {
          "internalType": "bool",
          "name": "",
          "type": "bool"
        }
      ],
      "stateMutability": "view",
      "type": "function"
    },
    {
      "inputs": [
        {
          "internalType": "uint256",
          "name": "_ammount",
          "type": "uint256"
        },
        {
          "internalType": "address",
          "name": "_owner",
          "type": "address"
        }
      ],
      "name": "cleanGarbage",
      "outputs": [],
      "stateMutability": "nonpayable",
      "type": "function"
    },
    {
      "inputs": [],
      "name": "currency",
      "outputs": [
        {
          "internalType": "contract IERC20",
          "name": "",
          "type": "address"
        }
      ],
      "stateMutability": "view",
      "type": "function"
    },
    {
      "inputs": [],
      "name": "getCurrentPrice",
      "outputs": [
        {
          "internalType": "uint256",
          "name": "",
          "type": "uint256"
        }
      ],
      "stateMutability": "view",
      "type": "function"
    },
    {
      "inputs": [
        {
          "internalType": "uint256",
          "name": "_id",
          "type": "uint256"
        }
      ],
      "name": "getDifference",
      "outputs": [
        {
          "components": [
            {
              "internalType": "uint256",
              "name": "profits",
              "type": "uint256"
            },
            {
              "internalType": "bool",
              "name": "isprofit",
              "type": "bool"
            }
          ],
          "internalType": "struct GameLogic.profit",
          "name": "",
          "type": "tuple"
        }
      ],
      "stateMutability": "view",
      "type": "function"
    },
    {
      "inputs": [],
      "name": "initialPrice",
      "outputs": [
        {
          "internalType": "uint256",
          "name": "",
          "type": "uint256"
        }
      ],
      "stateMutability": "view",
      "type": "function"
    },
    {
      "inputs": [],
      "name": "minimalPrice",
      "outputs": [
        {
          "internalType": "uint256",
          "name": "",
          "type": "uint256"
        }
      ],
      "stateMutability": "view",
      "type": "function"
    },
    {
      "inputs": [],
      "name": "owner",
      "outputs": [
        {
          "internalType": "address",
          "name": "",
          "type": "address"
        }
      ],
      "stateMutability": "view",
      "type": "function"
    },
    {
      "inputs": [
        {
          "internalType": "uint256",
          "name": "",
          "type": "uint256"
        }
      ],
      "name": "priceOfBuy",
      "outputs": [
        {
          "internalType": "uint256",
          "name": "",
          "type": "uint256"
        }
      ],
      "stateMutability": "view",
      "type": "function"
    },
    {
      "inputs": [
        {
          "internalType": "uint256",
          "name": "",
          "type": "uint256"
        }
      ],
      "name": "priceOfSell",
      "outputs": [
        {
          "internalType": "uint256",
          "name": "",
          "type": "uint256"
        }
      ],
      "stateMutability": "view",
      "type": "function"
    },
    {
      "inputs": [
        {
          "internalType": "uint256",
          "name": "_id",
          "type": "uint256"
        }
      ],
      "name": "redeemAndBurn",
      "outputs": [
        {
          "internalType": "bool",
          "name": "",
          "type": "bool"
        }
      ],
      "stateMutability": "nonpayable",
      "type": "function"
    },
    {
      "inputs": [],
      "name": "renounceOwnership",
      "outputs": [],
      "stateMutability": "nonpayable",
      "type": "function"
    },
    {
      "inputs": [
        {
          "internalType": "uint256",
          "name": "_initialPrice",
          "type": "uint256"
        }
      ],
      "name": "setAndStart",
      "outputs": [],
      "stateMutability": "nonpayable",
      "type": "function"
    },
    {
      "inputs": [
        {
          "internalType": "uint256",
          "name": "_days",
          "type": "uint256"
        }
      ],
      "name": "setAuctionMaxDuration",
      "outputs": [],
      "stateMutability": "nonpayable",
      "type": "function"
    },
    {
      "inputs": [
        {
          "internalType": "uint256",
          "name": "_basePrice",
          "type": "uint256"
        }
      ],
      "name": "setBasePrice",
      "outputs": [],
      "stateMutability": "nonpayable",
      "type": "function"
    },
    {
      "inputs": [
        {
          "internalType": "contract IERC20",
          "name": "_currency",
          "type": "address"
        }
      ],
      "name": "setCurrency",
      "outputs": [],
      "stateMutability": "nonpayable",
      "type": "function"
    },
    {
      "inputs": [
        {
          "internalType": "uint256",
          "name": "_initialPrice",
          "type": "uint256"
        }
      ],
      "name": "setInitialPrice",
      "outputs": [],
      "stateMutability": "nonpayable",
      "type": "function"
    },
    {
      "inputs": [
        {
          "internalType": "uint256",
          "name": "_minimalPrice",
          "type": "uint256"
        }
      ],
      "name": "setMinimalPrice",
      "outputs": [],
      "stateMutability": "nonpayable",
      "type": "function"
    },
    {
      "inputs": [
        {
          "internalType": "contract ohMyMinter",
          "name": "_token",
          "type": "address"
        }
      ],
      "name": "setToken",
      "outputs": [],
      "stateMutability": "nonpayable",
      "type": "function"
    },
    {
      "inputs": [],
      "name": "token",
      "outputs": [
        {
          "internalType": "contract ohMyMinter",
          "name": "",
          "type": "address"
        }
      ],
      "stateMutability": "view",
      "type": "function"
    },
    {
      "inputs": [],
      "name": "totalGarbage",
      "outputs": [
        {
          "internalType": "uint256",
          "name": "",
          "type": "uint256"
        }
      ],
      "stateMutability": "view",
      "type": "function"
    },
    {
      "inputs": [
        {
          "internalType": "address",
          "name": "newOwner",
          "type": "address"
        }
      ],
      "name": "transferOwnership",
      "outputs": [],
      "stateMutability": "nonpayable",
      "type": "function"
    }
  ],
  "bytecode": "0x6080604052621a5e006006553480156200001857600080fd5b50604051620023c7380380620023c783398181016040528101906200003e9190620002f3565b818162000060620000546200016460201b60201c565b6200016c60201b60201c565b81600160006101000a81548173ffffffffffffffffffffffffffffffffffffffff021916908373ffffffffffffffffffffffffffffffffffffffff16021790555080600260006101000a81548173ffffffffffffffffffffffffffffffffffffffff021916908373ffffffffffffffffffffffffffffffffffffffff16021790555050508073ffffffffffffffffffffffffffffffffffffffff166318160ddd6040518163ffffffff1660e01b8152600401602060405180830381865afa15801562000130573d6000803e3d6000fd5b505050506040513d601f19601f8201168201806040525081019062000156919062000375565b600a819055505050620003a7565b600033905090565b60008060009054906101000a900473ffffffffffffffffffffffffffffffffffffffff169050816000806101000a81548173ffffffffffffffffffffffffffffffffffffffff021916908373ffffffffffffffffffffffffffffffffffffffff1602179055508173ffffffffffffffffffffffffffffffffffffffff168173ffffffffffffffffffffffffffffffffffffffff167f8be0079c531659141344cd1fd0a4f28419497f9722a3daafe3b4186f6b6457e060405160405180910390a35050565b600080fd5b600073ffffffffffffffffffffffffffffffffffffffff82169050919050565b6000620002628262000235565b9050919050565b6000620002768262000255565b9050919050565b620002888162000269565b81146200029457600080fd5b50565b600081519050620002a8816200027d565b92915050565b6000620002bb8262000255565b9050919050565b620002cd81620002ae565b8114620002d957600080fd5b50565b600081519050620002ed81620002c2565b92915050565b600080604083850312156200030d576200030c62000230565b5b60006200031d8582860162000297565b92505060206200033085828601620002dc565b9150509250929050565b6000819050919050565b6200034f816200033a565b81146200035b57600080fd5b50565b6000815190506200036f8162000344565b92915050565b6000602082840312156200038e576200038d62000230565b5b60006200039e848285016200035e565b91505092915050565b61201080620003b76000396000f3fe608060405234801561001057600080fd5b50600436106101a95760003560e01c80638da5cb5b116100f9578063d0f933c011610097578063e5a6b10f11610071578063e5a6b10f14610482578063eb91d37e146104a0578063f2fde38b146104be578063fc0c546a146104da576101a9565b8063d0f933c01461041a578063d224b2241461044a578063de4b326214610466576101a9565b8063a7080cfb116100d3578063a7080cfb14610394578063b80e42a8146103b0578063c5c48b32146103e0578063c7876ea4146103fc576101a9565b80638da5cb5b146103505780639f4ba0ee1461036e578063a6f2ae3a1461038a576101a9565b80632ad715731161016657806344632f0c1161014057806344632f0c146102ec57806360d4fb621461030a578063715018a6146103285780638967d64214610332576101a9565b80632ad71573146102825780632f84c391146102a057806341cf4b2c146102bc576101a9565b806305724246146101ae5780630ebad804146101de578063144fa6d71461020e5780631d0806ae1461022a57806325ba2d2e14610248578063286cec0514610266575b600080fd5b6101c860048036038101906101c391906115af565b6104f8565b6040516101d591906115eb565b60405180910390f35b6101f860048036038101906101f391906115af565b610510565b6040516102059190611621565b60405180910390f35b610228600480360381019061022391906116ac565b61053b565b005b6102326105fb565b60405161023f91906115eb565b60405180910390f35b610250610601565b60405161025d91906115eb565b60405180910390f35b610280600480360381019061027b9190611705565b610607565b005b61028a6107c9565b60405161029791906115eb565b60405180910390f35b6102ba60048036038101906102b59190611783565b6107cf565b005b6102d660048036038101906102d191906115af565b61088f565b6040516102e391906115eb565b60405180910390f35b6102f46108a7565b60405161030191906115eb565b60405180910390f35b6103126108ad565b60405161031f91906115eb565b60405180910390f35b6103306108b3565b005b61033a61093b565b60405161034791906115eb565b60405180910390f35b610358610941565b60405161036591906117bf565b60405180910390f35b610388600480360381019061038391906115af565b61096a565b005b610392610a0f565b005b6103ae60048036038101906103a991906115af565b610cad565b005b6103ca60048036038101906103c591906115af565b610d33565b6040516103d79190611827565b60405180910390f35b6103fa60048036038101906103f591906115af565b610dd8565b005b610404610e5e565b60405161041191906115eb565b60405180910390f35b610434600480360381019061042f91906115af565b610e64565b6040516104419190611621565b60405180910390f35b610464600480360381019061045f91906115af565b611140565b005b610480600480360381019061047b91906115af565b6111d9565b005b61048a6111e3565b60405161049791906118a1565b60405180910390f35b6104a8611209565b6040516104b591906115eb565b60405180910390f35b6104d860048036038101906104d391906118bc565b6112c0565b005b6104e26113b7565b6040516104ef919061190a565b60405180910390f35b60086020528060005260406000206000915090505481565b600080600860006001856105249190611954565b815260200190815260200160002054119050919050565b6105436113dd565b73ffffffffffffffffffffffffffffffffffffffff16610561610941565b73ffffffffffffffffffffffffffffffffffffffff16146105b7576040517f08c379a00000000000000000000000000000000000000000000000000000000081526004016105ae90611a07565b60405180910390fd5b80600260006101000a81548173ffffffffffffffffffffffffffffffffffffffff021916908373ffffffffffffffffffffffffffffffffffffffff16021790555050565b60045481565b60055481565b61060f6113dd565b73ffffffffffffffffffffffffffffffffffffffff1661062d610941565b73ffffffffffffffffffffffffffffffffffffffff1614610683576040517f08c379a000000000000000000000000000000000000000000000000000000000815260040161067a90611a07565b60405180910390fd5b600082116106c6576040517f08c379a00000000000000000000000000000000000000000000000000000000081526004016106bd90611a73565b60405180910390fd5b600b5482111561070b576040517f08c379a000000000000000000000000000000000000000000000000000000000815260040161070290611adf565b60405180910390fd5b600160009054906101000a900473ffffffffffffffffffffffffffffffffffffffff1673ffffffffffffffffffffffffffffffffffffffff1663a9059cbb82846040518363ffffffff1660e01b8152600401610768929190611aff565b6020604051808303816000875af1158015610787573d6000803e3d6000fd5b505050506040513d601f19601f820116820180604052508101906107ab9190611b54565b5081600b60008282546107be9190611b81565b925050819055505050565b600a5481565b6107d76113dd565b73ffffffffffffffffffffffffffffffffffffffff166107f5610941565b73ffffffffffffffffffffffffffffffffffffffff161461084b576040517f08c379a000000000000000000000000000000000000000000000000000000000815260040161084290611a07565b60405180910390fd5b80600160006101000a81548173ffffffffffffffffffffffffffffffffffffffff021916908373ffffffffffffffffffffffffffffffffffffffff16021790555050565b60096020528060005260406000206000915090505481565b60075481565b60065481565b6108bb6113dd565b73ffffffffffffffffffffffffffffffffffffffff166108d9610941565b73ffffffffffffffffffffffffffffffffffffffff161461092f576040517f08c379a000000000000000000000000000000000000000000000000000000000815260040161092690611a07565b60405180910390fd5b61093960006113e5565b565b600b5481565b60008060009054906101000a900473ffffffffffffffffffffffffffffffffffffffff16905090565b6109726113dd565b73ffffffffffffffffffffffffffffffffffffffff16610990610941565b73ffffffffffffffffffffffffffffffffffffffff16146109e6576040517f08c379a00000000000000000000000000000000000000000000000000000000081526004016109dd90611a07565b60405180910390fd5b8060048190555060646019826109fc9190611bb5565b610a069190611c3e565b60058190555050565b6000610a19611209565b9050600a6000815480929190610a2e90611c6f565b919050555080600160009054906101000a900473ffffffffffffffffffffffffffffffffffffffff1673ffffffffffffffffffffffffffffffffffffffff166370a08231336040518263ffffffff1660e01b8152600401610a8f91906117bf565b602060405180830381865afa158015610aac573d6000803e3d6000fd5b505050506040513d601f19601f82011682018060405250810190610ad09190611ccc565b1015610b11576040517f08c379a0000000000000000000000000000000000000000000000000000000008152600401610b0890611d45565b60405180910390fd5b600160009054906101000a900473ffffffffffffffffffffffffffffffffffffffff1673ffffffffffffffffffffffffffffffffffffffff166323b872dd3330846040518463ffffffff1660e01b8152600401610b7093929190611d65565b6020604051808303816000875af1158015610b8f573d6000803e3d6000fd5b505050506040513d601f19601f82011682018060405250810190610bb39190611b54565b610bf2576040517f08c379a0000000000000000000000000000000000000000000000000000000008152600401610be990611de8565b60405180910390fd5b8060086000600a54815260200190815260200160002081905550610c158161096a565b610c1d6114a9565b600260009054906101000a900473ffffffffffffffffffffffffffffffffffffffff1673ffffffffffffffffffffffffffffffffffffffff166340d097c3336040518263ffffffff1660e01b8152600401610c7891906117bf565b600060405180830381600087803b158015610c9257600080fd5b505af1158015610ca6573d6000803e3d6000fd5b5050505050565b610cb56113dd565b73ffffffffffffffffffffffffffffffffffffffff16610cd3610941565b73ffffffffffffffffffffffffffffffffffffffff1614610d29576040517f08c379a0000000000000000000000000000000000000000000000000000000008152600401610d2090611a07565b60405180910390fd5b8060068190555050565b610d3b611558565b600060086000848152602001908152602001600020549050600060096000858152602001908152602001600020549050610d73611558565b81831115610da6578183610d879190611b81565b8160000181815250506000816020019015159081151581525050610dcd565b8282610db29190611b81565b81600001818152505060018160200190151590811515815250505b809350505050919050565b610de06113dd565b73ffffffffffffffffffffffffffffffffffffffff16610dfe610941565b73ffffffffffffffffffffffffffffffffffffffff1614610e54576040517f08c379a0000000000000000000000000000000000000000000000000000000008152600401610e4b90611a07565b60405180910390fd5b8060058190555050565b60035481565b60003373ffffffffffffffffffffffffffffffffffffffff16600260009054906101000a900473ffffffffffffffffffffffffffffffffffffffff1673ffffffffffffffffffffffffffffffffffffffff16636352211e846040518263ffffffff1660e01b8152600401610ed891906115eb565b602060405180830381865afa158015610ef5573d6000803e3d6000fd5b505050506040513d601f19601f82011682018060405250810190610f199190611e1d565b73ffffffffffffffffffffffffffffffffffffffff1614610f6f576040517f08c379a0000000000000000000000000000000000000000000000000000000008152600401610f6690611ebc565b60405180910390fd5b610f7882610510565b610fb7576040517f08c379a0000000000000000000000000000000000000000000000000000000008152600401610fae90611f28565b60405180910390fd5b600060086000600185610fca9190611954565b8152602001908152602001600020549050806009600085815260200190815260200160002081905550600260009054906101000a900473ffffffffffffffffffffffffffffffffffffffff1673ffffffffffffffffffffffffffffffffffffffff166323b872dd3330866040518463ffffffff1660e01b815260040161105293929190611d65565b600060405180830381600087803b15801561106c57600080fd5b505af1158015611080573d6000803e3d6000fd5b50505050600160009054906101000a900473ffffffffffffffffffffffffffffffffffffffff1673ffffffffffffffffffffffffffffffffffffffff1663a9059cbb33836040518363ffffffff1660e01b81526004016110e1929190611aff565b6020604051808303816000875af1158015611100573d6000803e3d6000fd5b505050506040513d601f19601f820116820180604052508101906111249190611b54565b5061113661113184610d33565b61152e565b6001915050919050565b6111486113dd565b73ffffffffffffffffffffffffffffffffffffffff16611166610941565b73ffffffffffffffffffffffffffffffffffffffff16146111bc576040517f08c379a00000000000000000000000000000000000000000000000000000000081526004016111b390611a07565b60405180910390fd5b6111c58161096a565b6111ce816111d9565b6111d66114a9565b50565b8060038190555050565b600160009054906101000a900473ffffffffffffffffffffffffffffffffffffffff1681565b60008060075460065461121c9190611954565b9050804210611230576005549150506112bd565b6000600a546003546112429190611bb5565b60026004546112519190611bb5565b61125b9190611954565b905060006007544261126d9190611b81565b905060006007548461127f9190611b81565b6005548461128d9190611b81565b6112979190611c3e565b9050600082826112a79190611bb5565b846112b29190611b81565b905080955050505050505b90565b6112c86113dd565b73ffffffffffffffffffffffffffffffffffffffff166112e6610941565b73ffffffffffffffffffffffffffffffffffffffff161461133c576040517f08c379a000000000000000000000000000000000000000000000000000000000815260040161133390611a07565b60405180910390fd5b600073ffffffffffffffffffffffffffffffffffffffff168173ffffffffffffffffffffffffffffffffffffffff16036113ab576040517f08c379a00000000000000000000000000000000000000000000000000000000081526004016113a290611fba565b60405180910390fd5b6113b4816113e5565b50565b600260009054906101000a900473ffffffffffffffffffffffffffffffffffffffff1681565b600033905090565b60008060009054906101000a900473ffffffffffffffffffffffffffffffffffffffff169050816000806101000a81548173ffffffffffffffffffffffffffffffffffffffff021916908373ffffffffffffffffffffffffffffffffffffffff1602179055508173ffffffffffffffffffffffffffffffffffffffff168173ffffffffffffffffffffffffffffffffffffffff167f8be0079c531659141344cd1fd0a4f28419497f9722a3daafe3b4186f6b6457e060405160405180910390a35050565b6114b16113dd565b73ffffffffffffffffffffffffffffffffffffffff166114cf610941565b73ffffffffffffffffffffffffffffffffffffffff1614611525576040517f08c379a000000000000000000000000000000000000000000000000000000000815260040161151c90611a07565b60405180910390fd5b42600781905550565b8060200151611555578060000151600b600082825461154d9190611954565b925050819055505b50565b6040518060400160405280600081526020016000151581525090565b600080fd5b6000819050919050565b61158c81611579565b811461159757600080fd5b50565b6000813590506115a981611583565b92915050565b6000602082840312156115c5576115c4611574565b5b60006115d38482850161159a565b91505092915050565b6115e581611579565b82525050565b600060208201905061160060008301846115dc565b92915050565b60008115159050919050565b61161b81611606565b82525050565b60006020820190506116366000830184611612565b92915050565b600073ffffffffffffffffffffffffffffffffffffffff82169050919050565b60006116678261163c565b9050919050565b60006116798261165c565b9050919050565b6116898161166e565b811461169457600080fd5b50565b6000813590506116a681611680565b92915050565b6000602082840312156116c2576116c1611574565b5b60006116d084828501611697565b91505092915050565b6116e28161165c565b81146116ed57600080fd5b50565b6000813590506116ff816116d9565b92915050565b6000806040838503121561171c5761171b611574565b5b600061172a8582860161159a565b925050602061173b858286016116f0565b9150509250929050565b60006117508261165c565b9050919050565b61176081611745565b811461176b57600080fd5b50565b60008135905061177d81611757565b92915050565b60006020828403121561179957611798611574565b5b60006117a78482850161176e565b91505092915050565b6117b98161165c565b82525050565b60006020820190506117d460008301846117b0565b92915050565b6117e381611579565b82525050565b6117f281611606565b82525050565b60408201600082015161180e60008501826117da565b50602082015161182160208501826117e9565b50505050565b600060408201905061183c60008301846117f8565b92915050565b6000819050919050565b600061186761186261185d8461163c565b611842565b61163c565b9050919050565b60006118798261184c565b9050919050565b600061188b8261186e565b9050919050565b61189b81611880565b82525050565b60006020820190506118b66000830184611892565b92915050565b6000602082840312156118d2576118d1611574565b5b60006118e0848285016116f0565b91505092915050565b60006118f48261186e565b9050919050565b611904816118e9565b82525050565b600060208201905061191f60008301846118fb565b92915050565b7f4e487b7100000000000000000000000000000000000000000000000000000000600052601160045260246000fd5b600061195f82611579565b915061196a83611579565b9250827fffffffffffffffffffffffffffffffffffffffffffffffffffffffffffffffff0382111561199f5761199e611925565b5b828201905092915050565b600082825260208201905092915050565b7f4f776e61626c653a2063616c6c6572206973206e6f7420746865206f776e6572600082015250565b60006119f16020836119aa565b91506119fc826119bb565b602082019050919050565b60006020820190508181036000830152611a20816119e4565b9050919050565b7f596f75206d7573742073656e64206120706f73697469766520616d6f756e7400600082015250565b6000611a5d601f836119aa565b9150611a6882611a27565b602082019050919050565b60006020820190508181036000830152611a8c81611a50565b9050919050565b7f596f7520646f6e2774206861766520656e6f7567682067617262616765000000600082015250565b6000611ac9601d836119aa565b9150611ad482611a93565b602082019050919050565b60006020820190508181036000830152611af881611abc565b9050919050565b6000604082019050611b1460008301856117b0565b611b2160208301846115dc565b9392505050565b611b3181611606565b8114611b3c57600080fd5b50565b600081519050611b4e81611b28565b92915050565b600060208284031215611b6a57611b69611574565b5b6000611b7884828501611b3f565b91505092915050565b6000611b8c82611579565b9150611b9783611579565b925082821015611baa57611ba9611925565b5b828203905092915050565b6000611bc082611579565b9150611bcb83611579565b9250817fffffffffffffffffffffffffffffffffffffffffffffffffffffffffffffffff0483118215151615611c0457611c03611925565b5b828202905092915050565b7f4e487b7100000000000000000000000000000000000000000000000000000000600052601260045260246000fd5b6000611c4982611579565b9150611c5483611579565b925082611c6457611c63611c0f565b5b828204905092915050565b6000611c7a82611579565b91507fffffffffffffffffffffffffffffffffffffffffffffffffffffffffffffffff8203611cac57611cab611925565b5b600182019050919050565b600081519050611cc681611583565b92915050565b600060208284031215611ce257611ce1611574565b5b6000611cf084828501611cb7565b91505092915050565b7f596f7520646f6e2774206861766520656e6f75676820746f6b656e7300000000600082015250565b6000611d2f601c836119aa565b9150611d3a82611cf9565b602082019050919050565b60006020820190508181036000830152611d5e81611d22565b9050919050565b6000606082019050611d7a60008301866117b0565b611d8760208301856117b0565b611d9460408301846115dc565b949350505050565b7f6572726f7220696e207472616e7366657220746f6b656e730000000000000000600082015250565b6000611dd26018836119aa565b9150611ddd82611d9c565b602082019050919050565b60006020820190508181036000830152611e0181611dc5565b9050919050565b600081519050611e17816116d9565b92915050565b600060208284031215611e3357611e32611574565b5b6000611e4184828501611e08565b91505092915050565b7f596f7520617265206e6f7420746865206f776e6572206f66207468697320746f60008201527f6b656e0000000000000000000000000000000000000000000000000000000000602082015250565b6000611ea66023836119aa565b9150611eb182611e4a565b604082019050919050565b60006020820190508181036000830152611ed581611e99565b9050919050565b7f596f752063616e27742073656c6c207468697320746f6b656e00000000000000600082015250565b6000611f126019836119aa565b9150611f1d82611edc565b602082019050919050565b60006020820190508181036000830152611f4181611f05565b9050919050565b7f4f776e61626c653a206e6577206f776e657220697320746865207a65726f206160008201527f6464726573730000000000000000000000000000000000000000000000000000602082015250565b6000611fa46026836119aa565b9150611faf82611f48565b604082019050919050565b60006020820190508181036000830152611fd381611f97565b905091905056fea26469706673582212208ffb6fd420b73c67ded8165a5514c69b7dc438a6b17369b2678461f28d50676e64736f6c634300080e0033",
  "linkReferences": {},
  "deployedLinkReferences": {}
}