{
  "_format": "hh-sol-artifact-1",
  "contractName": "ohMyMinter",
  "sourceName": "contracts/ohMyMinter.sol",
  "abi": [
    {
      "inputs": [],
      "stateMutability": "nonpayable",
      "type": "constructor"
    },
    {
      "anonymous": false,
      "inputs": [
        {
          "indexed": true,
          "internalType": "address",
          "name": "owner",
          "type": "address"
        },
        {
          "indexed": true,
          "internalType": "address",
          "name": "approved",
          "type": "address"
        },
        {
          "indexed": true,
          "internalType": "uint256",
          "name": "tokenId",
          "type": "uint256"
        }
      ],
      "name": "Approval",
      "type": "event"
    },
    {
      "anonymous": false,
      "inputs": [
        {
          "indexed": true,
          "internalType": "address",
          "name": "owner",
          "type": "address"
        },
        {
          "indexed": true,
          "internalType": "address",
          "name": "operator",
          "type": "address"
        },
        {
          "indexed": false,
          "internalType": "bool",
          "name": "approved",
          "type": "bool"
        }
      ],
      "name": "ApprovalForAll",
      "type": "event"
    },
    {
      "anonymous": false,
      "inputs": [
        {
          "indexed": true,
          "internalType": "address",
          "name": "previousOwner",
          "type": "address"
        },
        {
          "indexed": true,
          "internalType": "address",
          "name": "newOwner",
          "type": "address"
        }
      ],
      "name": "OwnershipTransferred",
      "type": "event"
    },
    {
      "anonymous": false,
      "inputs": [
        {
          "indexed": true,
          "internalType": "address",
          "name": "from",
          "type": "address"
        },
        {
          "indexed": true,
          "internalType": "address",
          "name": "to",
          "type": "address"
        },
        {
          "indexed": true,
          "internalType": "uint256",
          "name": "tokenId",
          "type": "uint256"
        }
      ],
      "name": "Transfer",
      "type": "event"
    },
    {
      "inputs": [
        {
          "internalType": "address",
          "name": "to",
          "type": "address"
        },
        {
          "internalType": "uint256",
          "name": "tokenId",
          "type": "uint256"
        }
      ],
      "name": "approve",
      "outputs": [],
      "stateMutability": "nonpayable",
      "type": "function"
    },
    {
      "inputs": [
        {
          "internalType": "address",
          "name": "owner",
          "type": "address"
        }
      ],
      "name": "balanceOf",
      "outputs": [
        {
          "internalType": "uint256",
          "name": "",
          "type": "uint256"
        }
      ],
      "stateMutability": "view",
      "type": "function"
    },
    {
      "inputs": [
        {
          "internalType": "uint256",
          "name": "tokenId",
          "type": "uint256"
        }
      ],
      "name": "burn",
      "outputs": [],
      "stateMutability": "nonpayable",
      "type": "function"
    },
    {
      "inputs": [
        {
          "internalType": "uint256",
          "name": "tokenId",
          "type": "uint256"
        }
      ],
      "name": "getApproved",
      "outputs": [
        {
          "internalType": "address",
          "name": "",
          "type": "address"
        }
      ],
      "stateMutability": "view",
      "type": "function"
    },
    {
      "inputs": [
        {
          "internalType": "address",
          "name": "owner",
          "type": "address"
        },
        {
          "internalType": "address",
          "name": "operator",
          "type": "address"
        }
      ],
      "name": "isApprovedForAll",
      "outputs": [
        {
          "internalType": "bool",
          "name": "",
          "type": "bool"
        }
      ],
      "stateMutability": "view",
      "type": "function"
    },
    {
      "inputs": [],
      "name": "minter",
      "outputs": [
        {
          "internalType": "address",
          "name": "",
          "type": "address"
        }
      ],
      "stateMutability": "view",
      "type": "function"
    },
    {
      "inputs": [],
      "name": "name",
      "outputs": [
        {
          "internalType": "string",
          "name": "",
          "type": "string"
        }
      ],
      "stateMutability": "view",
      "type": "function"
    },
    {
      "inputs": [],
      "name": "owner",
      "outputs": [
        {
          "internalType": "address",
          "name": "",
          "type": "address"
        }
      ],
      "stateMutability": "view",
      "type": "function"
    },
    {
      "inputs": [
        {
          "internalType": "uint256",
          "name": "tokenId",
          "type": "uint256"
        }
      ],
      "name": "ownerOf",
      "outputs": [
        {
          "internalType": "address",
          "name": "",
          "type": "address"
        }
      ],
      "stateMutability": "view",
      "type": "function"
    },
    {
      "inputs": [],
      "name": "renounceOwnership",
      "outputs": [],
      "stateMutability": "nonpayable",
      "type": "function"
    },
    {
      "inputs": [
        {
          "internalType": "address",
          "name": "to",
          "type": "address"
        }
      ],
      "name": "safeMint",
      "outputs": [],
      "stateMutability": "nonpayable",
      "type": "function"
    },
    {
      "inputs": [
        {
          "internalType": "address",
          "name": "from",
          "type": "address"
        },
        {
          "internalType": "address",
          "name": "to",
          "type": "address"
        },
        {
          "internalType": "uint256",
          "name": "tokenId",
          "type": "uint256"
        }
      ],
      "name": "safeTransferFrom",
      "outputs": [],
      "stateMutability": "nonpayable",
      "type": "function"
    },
    {
      "inputs": [
        {
          "internalType": "address",
          "name": "from",
          "type": "address"
        },
        {
          "internalType": "address",
          "name": "to",
          "type": "address"
        },
        {
          "internalType": "uint256",
          "name": "tokenId",
          "type": "uint256"
        },
        {
          "internalType": "bytes",
          "name": "_data",
          "type": "bytes"
        }
      ],
      "name": "safeTransferFrom",
      "outputs": [],
      "stateMutability": "nonpayable",
      "type": "function"
    },
    {
      "inputs": [
        {
          "internalType": "address",
          "name": "operator",
          "type": "address"
        },
        {
          "internalType": "bool",
          "name": "approved",
          "type": "bool"
        }
      ],
      "name": "setApprovalForAll",
      "outputs": [],
      "stateMutability": "nonpayable",
      "type": "function"
    },
    {
      "inputs": [
        {
          "internalType": "address",
          "name": "_newMinter",
          "type": "address"
        }
      ],
      "name": "setMinter",
      "outputs": [],
      "stateMutability": "nonpayable",
      "type": "function"
    },
    {
      "inputs": [
        {
          "internalType": "bytes4",
          "name": "interfaceId",
          "type": "bytes4"
        }
      ],
      "name": "supportsInterface",
      "outputs": [
        {
          "internalType": "bool",
          "name": "",
          "type": "bool"
        }
      ],
      "stateMutability": "view",
      "type": "function"
    },
    {
      "inputs": [],
      "name": "symbol",
      "outputs": [
        {
          "internalType": "string",
          "name": "",
          "type": "string"
        }
      ],
      "stateMutability": "view",
      "type": "function"
    },
    {
      "inputs": [
        {
          "internalType": "uint256",
          "name": "index",
          "type": "uint256"
        }
      ],
      "name": "tokenByIndex",
      "outputs": [
        {
          "internalType": "uint256",
          "name": "",
          "type": "uint256"
        }
      ],
      "stateMutability": "view",
      "type": "function"
    },
    {
      "inputs": [
        {
          "internalType": "address",
          "name": "_owner",
          "type": "address"
        }
      ],
      "name": "tokenOfOwner",
      "outputs": [
        {
          "internalType": "uint256[]",
          "name": "",
          "type": "uint256[]"
        }
      ],
      "stateMutability": "view",
      "type": "function"
    },
    {
      "inputs": [
        {
          "internalType": "address",
          "name": "owner",
          "type": "address"
        },
        {
          "internalType": "uint256",
          "name": "index",
          "type": "uint256"
        }
      ],
      "name": "tokenOfOwnerByIndex",
      "outputs": [
        {
          "internalType": "uint256",
          "name": "",
          "type": "uint256"
        }
      ],
      "stateMutability": "view",
      "type": "function"
    },
    {
      "inputs": [
        {
          "internalType": "uint256",
          "name": "tokenId",
          "type": "uint256"
        }
      ],
      "name": "tokenURI",
      "outputs": [
        {
          "internalType": "string",
          "name": "",
          "type": "string"
        }
      ],
      "stateMutability": "view",
      "type": "function"
    },
    {
      "inputs": [],
      "name": "totalSupply",
      "outputs": [
        {
          "internalType": "uint256",
          "name": "",
          "type": "uint256"
        }
      ],
      "stateMutability": "view",
      "type": "function"
    },
    {
      "inputs": [
        {
          "internalType": "address",
          "name": "from",
          "type": "address"
        },
        {
          "internalType": "address",
          "name": "to",
          "type": "address"
        },
        {
          "internalType": "uint256",
          "name": "tokenId",
          "type": "uint256"
        }
      ],
      "name": "transferFrom",
      "outputs": [],
      "stateMutability": "nonpayable",
      "type": "function"
    },
    {
      "inputs": [
        {
          "internalType": "address",
          "name": "newOwner",
          "type": "address"
        }
      ],
      "name": "transferOwnership",
      "outputs": [],
      "stateMutability": "nonpayable",
      "type": "function"
    }
  ],
  "bytecode": "0x60806040523480156200001157600080fd5b506040518060400160405280600a81526020017f6f684d794d696e746572000000000000000000000000000000000000000000008152506040518060400160405280600381526020017f4f4d4d0000000000000000000000000000000000000000000000000000000000815250816000908051906020019062000096929190620001a6565b508060019080519060200190620000af929190620001a6565b505050620000d2620000c6620000d860201b60201c565b620000e060201b60201c565b620002ba565b600033905090565b6000600a60009054906101000a900473ffffffffffffffffffffffffffffffffffffffff16905081600a60006101000a81548173ffffffffffffffffffffffffffffffffffffffff021916908373ffffffffffffffffffffffffffffffffffffffff1602179055508173ffffffffffffffffffffffffffffffffffffffff168173ffffffffffffffffffffffffffffffffffffffff167f8be0079c531659141344cd1fd0a4f28419497f9722a3daafe3b4186f6b6457e060405160405180910390a35050565b828054620001b49062000285565b90600052602060002090601f016020900481019282620001d8576000855562000224565b82601f10620001f357805160ff191683800117855562000224565b8280016001018555821562000224579182015b828111156200022357825182559160200191906001019062000206565b5b50905062000233919062000237565b5090565b5b808211156200025257600081600090555060010162000238565b5090565b7f4e487b7100000000000000000000000000000000000000000000000000000000600052602260045260246000fd5b600060028204905060018216806200029e57607f821691505b602082108103620002b457620002b362000256565b5b50919050565b6138ff80620002ca6000396000f3fe608060405234801561001057600080fd5b50600436106101585760003560e01c80634f6ccce7116100c3578063a22cb4651161007c578063a22cb465146103d9578063b88d4fde146103f5578063c87b56dd14610411578063e985e9c514610441578063f2fde38b14610471578063fca3b5aa1461048d57610158565b80634f6ccce7146103035780636352211e1461033357806370a0823114610363578063715018a6146103935780638da5cb5b1461039d57806395d89b41146103bb57610158565b806323b872dd1161011557806323b872dd14610233578063294cdf0d1461024f5780632f745c591461027f57806340d097c3146102af57806342842e0e146102cb57806342966c68146102e757610158565b806301ffc9a71461015d57806306fdde031461018d57806307546172146101ab578063081812fc146101c9578063095ea7b3146101f957806318160ddd14610215575b600080fd5b610177600480360381019061017291906124c1565b6104a9565b6040516101849190612509565b60405180910390f35b6101956104bb565b6040516101a291906125bd565b60405180910390f35b6101b361054d565b6040516101c09190612620565b60405180910390f35b6101e360048036038101906101de9190612671565b610573565b6040516101f09190612620565b60405180910390f35b610213600480360381019061020e91906126ca565b6105f8565b005b61021d61070f565b60405161022a9190612719565b60405180910390f35b61024d60048036038101906102489190612734565b61071c565b005b61026960048036038101906102649190612787565b61077c565b6040516102769190612872565b60405180910390f35b610299600480360381019061029491906126ca565b61082a565b6040516102a69190612719565b60405180910390f35b6102c960048036038101906102c49190612787565b6108cf565b005b6102e560048036038101906102e09190612734565b61098c565b005b61030160048036038101906102fc9190612671565b6109ac565b005b61031d60048036038101906103189190612671565b610a08565b60405161032a9190612719565b60405180910390f35b61034d60048036038101906103489190612671565b610a79565b60405161035a9190612620565b60405180910390f35b61037d60048036038101906103789190612787565b610b2a565b60405161038a9190612719565b60405180910390f35b61039b610be1565b005b6103a5610c69565b6040516103b29190612620565b60405180910390f35b6103c3610c93565b6040516103d091906125bd565b60405180910390f35b6103f360048036038101906103ee91906128c0565b610d25565b005b61040f600480360381019061040a9190612a35565b610d3b565b005b61042b60048036038101906104269190612671565b610d9d565b60405161043891906125bd565b60405180910390f35b61045b60048036038101906104569190612ab8565b610e44565b6040516104689190612509565b60405180910390f35b61048b60048036038101906104869190612787565b610ed8565b005b6104a760048036038101906104a29190612787565b610fcf565b005b60006104b4826110aa565b9050919050565b6060600080546104ca90612b27565b80601f01602080910402602001604051908101604052809291908181526020018280546104f690612b27565b80156105435780601f1061051857610100808354040283529160200191610543565b820191906000526020600020905b81548152906001019060200180831161052657829003601f168201915b5050505050905090565b600c60009054906101000a900473ffffffffffffffffffffffffffffffffffffffff1681565b600061057e82611124565b6105bd576040517f08c379a00000000000000000000000000000000000000000000000000000000081526004016105b490612bca565b60405180910390fd5b6004600083815260200190815260200160002060009054906101000a900473ffffffffffffffffffffffffffffffffffffffff169050919050565b600061060382610a79565b90508073ffffffffffffffffffffffffffffffffffffffff168373ffffffffffffffffffffffffffffffffffffffff1603610673576040517f08c379a000000000000000000000000000000000000000000000000000000000815260040161066a90612c5c565b60405180910390fd5b8073ffffffffffffffffffffffffffffffffffffffff16610692611190565b73ffffffffffffffffffffffffffffffffffffffff1614806106c157506106c0816106bb611190565b610e44565b5b610700576040517f08c379a00000000000000000000000000000000000000000000000000000000081526004016106f790612cee565b60405180910390fd5b61070a8383611198565b505050565b6000600880549050905090565b61072d610727611190565b82611251565b61076c576040517f08c379a000000000000000000000000000000000000000000000000000000000815260040161076390612d80565b60405180910390fd5b61077783838361132f565b505050565b6060600061078983610b2a565b905060008167ffffffffffffffff8111156107a7576107a661290a565b5b6040519080825280602002602001820160405280156107d55781602001602082028036833780820191505090505b50905060005b8281101561081f576107ed858261082a565b828281518110610800576107ff612da0565b5b602002602001018181525050808061081790612dfe565b9150506107db565b508092505050919050565b600061083583610b2a565b8210610876576040517f08c379a000000000000000000000000000000000000000000000000000000000815260040161086d90612eb8565b60405180910390fd5b600660008473ffffffffffffffffffffffffffffffffffffffff1673ffffffffffffffffffffffffffffffffffffffff168152602001908152602001600020600083815260200190815260200160002054905092915050565b600c60009054906101000a900473ffffffffffffffffffffffffffffffffffffffff1673ffffffffffffffffffffffffffffffffffffffff163373ffffffffffffffffffffffffffffffffffffffff16148061095d575061092e610c69565b73ffffffffffffffffffffffffffffffffffffffff163373ffffffffffffffffffffffffffffffffffffffff16145b61096657600080fd5b610970600b611595565b600061097c600b6115ab565b905061098882826115b9565b5050565b6109a783838360405180602001604052806000815250610d3b565b505050565b6109bd6109b7611190565b82611251565b6109fc576040517f08c379a00000000000000000000000000000000000000000000000000000000081526004016109f390612f4a565b60405180910390fd5b610a05816115d7565b50565b6000610a1261070f565b8210610a53576040517f08c379a0000000000000000000000000000000000000000000000000000000008152600401610a4a90612fdc565b60405180910390fd5b60088281548110610a6757610a66612da0565b5b90600052602060002001549050919050565b6000806002600084815260200190815260200160002060009054906101000a900473ffffffffffffffffffffffffffffffffffffffff169050600073ffffffffffffffffffffffffffffffffffffffff168173ffffffffffffffffffffffffffffffffffffffff1603610b21576040517f08c379a0000000000000000000000000000000000000000000000000000000008152600401610b189061306e565b60405180910390fd5b80915050919050565b60008073ffffffffffffffffffffffffffffffffffffffff168273ffffffffffffffffffffffffffffffffffffffff1603610b9a576040517f08c379a0000000000000000000000000000000000000000000000000000000008152600401610b9190613100565b60405180910390fd5b600360008373ffffffffffffffffffffffffffffffffffffffff1673ffffffffffffffffffffffffffffffffffffffff168152602001908152602001600020549050919050565b610be9611190565b73ffffffffffffffffffffffffffffffffffffffff16610c07610c69565b73ffffffffffffffffffffffffffffffffffffffff1614610c5d576040517f08c379a0000000000000000000000000000000000000000000000000000000008152600401610c549061316c565b60405180910390fd5b610c6760006116f4565b565b6000600a60009054906101000a900473ffffffffffffffffffffffffffffffffffffffff16905090565b606060018054610ca290612b27565b80601f0160208091040260200160405190810160405280929190818152602001828054610cce90612b27565b8015610d1b5780601f10610cf057610100808354040283529160200191610d1b565b820191906000526020600020905b815481529060010190602001808311610cfe57829003601f168201915b5050505050905090565b610d37610d30611190565b83836117ba565b5050565b610d4c610d46611190565b83611251565b610d8b576040517f08c379a0000000000000000000000000000000000000000000000000000000008152600401610d8290612d80565b60405180910390fd5b610d9784848484611926565b50505050565b6060610da882611124565b610de7576040517f08c379a0000000000000000000000000000000000000000000000000000000008152600401610dde906131fe565b60405180910390fd5b6000610df1611982565b90506000815111610e115760405180602001604052806000815250610e3c565b80610e1b84611999565b604051602001610e2c92919061325a565b6040516020818303038152906040525b915050919050565b6000600560008473ffffffffffffffffffffffffffffffffffffffff1673ffffffffffffffffffffffffffffffffffffffff16815260200190815260200160002060008373ffffffffffffffffffffffffffffffffffffffff1673ffffffffffffffffffffffffffffffffffffffff16815260200190815260200160002060009054906101000a900460ff16905092915050565b610ee0611190565b73ffffffffffffffffffffffffffffffffffffffff16610efe610c69565b73ffffffffffffffffffffffffffffffffffffffff1614610f54576040517f08c379a0000000000000000000000000000000000000000000000000000000008152600401610f4b9061316c565b60405180910390fd5b600073ffffffffffffffffffffffffffffffffffffffff168173ffffffffffffffffffffffffffffffffffffffff1603610fc3576040517f08c379a0000000000000000000000000000000000000000000000000000000008152600401610fba906132f0565b60405180910390fd5b610fcc816116f4565b50565b600c60009054906101000a900473ffffffffffffffffffffffffffffffffffffffff1673ffffffffffffffffffffffffffffffffffffffff163373ffffffffffffffffffffffffffffffffffffffff16148061105d575061102e610c69565b73ffffffffffffffffffffffffffffffffffffffff163373ffffffffffffffffffffffffffffffffffffffff16145b61106657600080fd5b80600c60006101000a81548173ffffffffffffffffffffffffffffffffffffffff021916908373ffffffffffffffffffffffffffffffffffffffff16021790555050565b60007f780e9d63000000000000000000000000000000000000000000000000000000007bffffffffffffffffffffffffffffffffffffffffffffffffffffffff1916827bffffffffffffffffffffffffffffffffffffffffffffffffffffffff1916148061111d575061111c82611af9565b5b9050919050565b60008073ffffffffffffffffffffffffffffffffffffffff166002600084815260200190815260200160002060009054906101000a900473ffffffffffffffffffffffffffffffffffffffff1673ffffffffffffffffffffffffffffffffffffffff1614159050919050565b600033905090565b816004600083815260200190815260200160002060006101000a81548173ffffffffffffffffffffffffffffffffffffffff021916908373ffffffffffffffffffffffffffffffffffffffff160217905550808273ffffffffffffffffffffffffffffffffffffffff1661120b83610a79565b73ffffffffffffffffffffffffffffffffffffffff167f8c5be1e5ebec7d5bd14f71427d1e84f3dd0314c0f7b2291e5b200ac8c7c3b92560405160405180910390a45050565b600061125c82611124565b61129b576040517f08c379a000000000000000000000000000000000000000000000000000000000815260040161129290613382565b60405180910390fd5b60006112a683610a79565b90508073ffffffffffffffffffffffffffffffffffffffff168473ffffffffffffffffffffffffffffffffffffffff1614806112e857506112e78185610e44565b5b8061132657508373ffffffffffffffffffffffffffffffffffffffff1661130e84610573565b73ffffffffffffffffffffffffffffffffffffffff16145b91505092915050565b8273ffffffffffffffffffffffffffffffffffffffff1661134f82610a79565b73ffffffffffffffffffffffffffffffffffffffff16146113a5576040517f08c379a000000000000000000000000000000000000000000000000000000000815260040161139c90613414565b60405180910390fd5b600073ffffffffffffffffffffffffffffffffffffffff168273ffffffffffffffffffffffffffffffffffffffff1603611414576040517f08c379a000000000000000000000000000000000000000000000000000000000815260040161140b906134a6565b60405180910390fd5b61141f838383611bdb565b61142a600082611198565b6001600360008573ffffffffffffffffffffffffffffffffffffffff1673ffffffffffffffffffffffffffffffffffffffff168152602001908152602001600020600082825461147a91906134c6565b925050819055506001600360008473ffffffffffffffffffffffffffffffffffffffff1673ffffffffffffffffffffffffffffffffffffffff16815260200190815260200160002060008282546114d191906134fa565b92505081905550816002600083815260200190815260200160002060006101000a81548173ffffffffffffffffffffffffffffffffffffffff021916908373ffffffffffffffffffffffffffffffffffffffff160217905550808273ffffffffffffffffffffffffffffffffffffffff168473ffffffffffffffffffffffffffffffffffffffff167fddf252ad1be2c89b69c2b068fc378daa952ba7f163c4a11628f55a4df523b3ef60405160405180910390a4611590838383611beb565b505050565b6001816000016000828254019250508190555050565b600081600001549050919050565b6115d3828260405180602001604052806000815250611bf0565b5050565b60006115e282610a79565b90506115f081600084611bdb565b6115fb600083611198565b6001600360008373ffffffffffffffffffffffffffffffffffffffff1673ffffffffffffffffffffffffffffffffffffffff168152602001908152602001600020600082825461164b91906134c6565b925050819055506002600083815260200190815260200160002060006101000a81549073ffffffffffffffffffffffffffffffffffffffff021916905581600073ffffffffffffffffffffffffffffffffffffffff168273ffffffffffffffffffffffffffffffffffffffff167fddf252ad1be2c89b69c2b068fc378daa952ba7f163c4a11628f55a4df523b3ef60405160405180910390a46116f081600084611beb565b5050565b6000600a60009054906101000a900473ffffffffffffffffffffffffffffffffffffffff16905081600a60006101000a81548173ffffffffffffffffffffffffffffffffffffffff021916908373ffffffffffffffffffffffffffffffffffffffff1602179055508173ffffffffffffffffffffffffffffffffffffffff168173ffffffffffffffffffffffffffffffffffffffff167f8be0079c531659141344cd1fd0a4f28419497f9722a3daafe3b4186f6b6457e060405160405180910390a35050565b8173ffffffffffffffffffffffffffffffffffffffff168373ffffffffffffffffffffffffffffffffffffffff1603611828576040517f08c379a000000000000000000000000000000000000000000000000000000000815260040161181f9061359c565b60405180910390fd5b80600560008573ffffffffffffffffffffffffffffffffffffffff1673ffffffffffffffffffffffffffffffffffffffff16815260200190815260200160002060008473ffffffffffffffffffffffffffffffffffffffff1673ffffffffffffffffffffffffffffffffffffffff16815260200190815260200160002060006101000a81548160ff0219169083151502179055508173ffffffffffffffffffffffffffffffffffffffff168373ffffffffffffffffffffffffffffffffffffffff167f17307eab39ab6107e8899845ad3d59bd9653f200f220920489ca2b5937696c31836040516119199190612509565b60405180910390a3505050565b61193184848461132f565b61193d84848484611c4b565b61197c576040517f08c379a00000000000000000000000000000000000000000000000000000000081526004016119739061362e565b60405180910390fd5b50505050565b606060405180602001604052806000815250905090565b6060600082036119e0576040518060400160405280600181526020017f30000000000000000000000000000000000000000000000000000000000000008152509050611af4565b600082905060005b60008214611a125780806119fb90612dfe565b915050600a82611a0b919061367d565b91506119e8565b60008167ffffffffffffffff811115611a2e57611a2d61290a565b5b6040519080825280601f01601f191660200182016040528015611a605781602001600182028036833780820191505090505b5090505b60008514611aed57600182611a7991906134c6565b9150600a85611a8891906136ae565b6030611a9491906134fa565b60f81b818381518110611aaa57611aa9612da0565b5b60200101907effffffffffffffffffffffffffffffffffffffffffffffffffffffffffffff1916908160001a905350600a85611ae6919061367d565b9450611a64565b8093505050505b919050565b60007f80ac58cd000000000000000000000000000000000000000000000000000000007bffffffffffffffffffffffffffffffffffffffffffffffffffffffff1916827bffffffffffffffffffffffffffffffffffffffffffffffffffffffff19161480611bc457507f5b5e139f000000000000000000000000000000000000000000000000000000007bffffffffffffffffffffffffffffffffffffffffffffffffffffffff1916827bffffffffffffffffffffffffffffffffffffffffffffffffffffffff1916145b80611bd45750611bd382611dd2565b5b9050919050565b611be6838383611e3c565b505050565b505050565b611bfa8383611f4e565b611c076000848484611c4b565b611c46576040517f08c379a0000000000000000000000000000000000000000000000000000000008152600401611c3d9061362e565b60405180910390fd5b505050565b6000611c6c8473ffffffffffffffffffffffffffffffffffffffff16612127565b15611dc5578373ffffffffffffffffffffffffffffffffffffffff1663150b7a02611c95611190565b8786866040518563ffffffff1660e01b8152600401611cb79493929190613734565b6020604051808303816000875af1925050508015611cf357506040513d601f19601f82011682018060405250810190611cf09190613795565b60015b611d75573d8060008114611d23576040519150601f19603f3d011682016040523d82523d6000602084013e611d28565b606091505b506000815103611d6d576040517f08c379a0000000000000000000000000000000000000000000000000000000008152600401611d649061362e565b60405180910390fd5b805181602001fd5b63150b7a0260e01b7bffffffffffffffffffffffffffffffffffffffffffffffffffffffff1916817bffffffffffffffffffffffffffffffffffffffffffffffffffffffff191614915050611dca565b600190505b949350505050565b60007f01ffc9a7000000000000000000000000000000000000000000000000000000007bffffffffffffffffffffffffffffffffffffffffffffffffffffffff1916827bffffffffffffffffffffffffffffffffffffffffffffffffffffffff1916149050919050565b611e4783838361214a565b600073ffffffffffffffffffffffffffffffffffffffff168373ffffffffffffffffffffffffffffffffffffffff1603611e8957611e848161214f565b611ec8565b8173ffffffffffffffffffffffffffffffffffffffff168373ffffffffffffffffffffffffffffffffffffffff1614611ec757611ec68382612198565b5b5b600073ffffffffffffffffffffffffffffffffffffffff168273ffffffffffffffffffffffffffffffffffffffff1603611f0a57611f0581612305565b611f49565b8273ffffffffffffffffffffffffffffffffffffffff168273ffffffffffffffffffffffffffffffffffffffff1614611f4857611f4782826123d6565b5b5b505050565b600073ffffffffffffffffffffffffffffffffffffffff168273ffffffffffffffffffffffffffffffffffffffff1603611fbd576040517f08c379a0000000000000000000000000000000000000000000000000000000008152600401611fb49061380e565b60405180910390fd5b611fc681611124565b15612006576040517f08c379a0000000000000000000000000000000000000000000000000000000008152600401611ffd9061387a565b60405180910390fd5b61201260008383611bdb565b6001600360008473ffffffffffffffffffffffffffffffffffffffff1673ffffffffffffffffffffffffffffffffffffffff168152602001908152602001600020600082825461206291906134fa565b92505081905550816002600083815260200190815260200160002060006101000a81548173ffffffffffffffffffffffffffffffffffffffff021916908373ffffffffffffffffffffffffffffffffffffffff160217905550808273ffffffffffffffffffffffffffffffffffffffff16600073ffffffffffffffffffffffffffffffffffffffff167fddf252ad1be2c89b69c2b068fc378daa952ba7f163c4a11628f55a4df523b3ef60405160405180910390a461212360008383611beb565b5050565b6000808273ffffffffffffffffffffffffffffffffffffffff163b119050919050565b505050565b6008805490506009600083815260200190815260200160002081905550600881908060018154018082558091505060019003906000526020600020016000909190919091505550565b600060016121a584610b2a565b6121af91906134c6565b9050600060076000848152602001908152602001600020549050818114612294576000600660008673ffffffffffffffffffffffffffffffffffffffff1673ffffffffffffffffffffffffffffffffffffffff168152602001908152602001600020600084815260200190815260200160002054905080600660008773ffffffffffffffffffffffffffffffffffffffff1673ffffffffffffffffffffffffffffffffffffffff168152602001908152602001600020600084815260200190815260200160002081905550816007600083815260200190815260200160002081905550505b6007600084815260200190815260200160002060009055600660008573ffffffffffffffffffffffffffffffffffffffff1673ffffffffffffffffffffffffffffffffffffffff16815260200190815260200160002060008381526020019081526020016000206000905550505050565b6000600160088054905061231991906134c6565b905060006009600084815260200190815260200160002054905060006008838154811061234957612348612da0565b5b90600052602060002001549050806008838154811061236b5761236a612da0565b5b9060005260206000200181905550816009600083815260200190815260200160002081905550600960008581526020019081526020016000206000905560088054806123ba576123b961389a565b5b6001900381819060005260206000200160009055905550505050565b60006123e183610b2a565b905081600660008573ffffffffffffffffffffffffffffffffffffffff1673ffffffffffffffffffffffffffffffffffffffff168152602001908152602001600020600083815260200190815260200160002081905550806007600084815260200190815260200160002081905550505050565b6000604051905090565b600080fd5b600080fd5b60007fffffffff0000000000000000000000000000000000000000000000000000000082169050919050565b61249e81612469565b81146124a957600080fd5b50565b6000813590506124bb81612495565b92915050565b6000602082840312156124d7576124d661245f565b5b60006124e5848285016124ac565b91505092915050565b60008115159050919050565b612503816124ee565b82525050565b600060208201905061251e60008301846124fa565b92915050565b600081519050919050565b600082825260208201905092915050565b60005b8381101561255e578082015181840152602081019050612543565b8381111561256d576000848401525b50505050565b6000601f19601f8301169050919050565b600061258f82612524565b612599818561252f565b93506125a9818560208601612540565b6125b281612573565b840191505092915050565b600060208201905081810360008301526125d78184612584565b905092915050565b600073ffffffffffffffffffffffffffffffffffffffff82169050919050565b600061260a826125df565b9050919050565b61261a816125ff565b82525050565b60006020820190506126356000830184612611565b92915050565b6000819050919050565b61264e8161263b565b811461265957600080fd5b50565b60008135905061266b81612645565b92915050565b6000602082840312156126875761268661245f565b5b60006126958482850161265c565b91505092915050565b6126a7816125ff565b81146126b257600080fd5b50565b6000813590506126c48161269e565b92915050565b600080604083850312156126e1576126e061245f565b5b60006126ef858286016126b5565b92505060206127008582860161265c565b9150509250929050565b6127138161263b565b82525050565b600060208201905061272e600083018461270a565b92915050565b60008060006060848603121561274d5761274c61245f565b5b600061275b868287016126b5565b935050602061276c868287016126b5565b925050604061277d8682870161265c565b9150509250925092565b60006020828403121561279d5761279c61245f565b5b60006127ab848285016126b5565b91505092915050565b600081519050919050565b600082825260208201905092915050565b6000819050602082019050919050565b6127e98161263b565b82525050565b60006127fb83836127e0565b60208301905092915050565b6000602082019050919050565b600061281f826127b4565b61282981856127bf565b9350612834836127d0565b8060005b8381101561286557815161284c88826127ef565b975061285783612807565b925050600181019050612838565b5085935050505092915050565b6000602082019050818103600083015261288c8184612814565b905092915050565b61289d816124ee565b81146128a857600080fd5b50565b6000813590506128ba81612894565b92915050565b600080604083850312156128d7576128d661245f565b5b60006128e5858286016126b5565b92505060206128f6858286016128ab565b9150509250929050565b600080fd5b600080fd5b7f4e487b7100000000000000000000000000000000000000000000000000000000600052604160045260246000fd5b61294282612573565b810181811067ffffffffffffffff821117156129615761296061290a565b5b80604052505050565b6000612974612455565b90506129808282612939565b919050565b600067ffffffffffffffff8211156129a05761299f61290a565b5b6129a982612573565b9050602081019050919050565b82818337600083830152505050565b60006129d86129d384612985565b61296a565b9050828152602081018484840111156129f4576129f3612905565b5b6129ff8482856129b6565b509392505050565b600082601f830112612a1c57612a1b612900565b5b8135612a2c8482602086016129c5565b91505092915050565b60008060008060808587031215612a4f57612a4e61245f565b5b6000612a5d878288016126b5565b9450506020612a6e878288016126b5565b9350506040612a7f8782880161265c565b925050606085013567ffffffffffffffff811115612aa057612a9f612464565b5b612aac87828801612a07565b91505092959194509250565b60008060408385031215612acf57612ace61245f565b5b6000612add858286016126b5565b9250506020612aee858286016126b5565b9150509250929050565b7f4e487b7100000000000000000000000000000000000000000000000000000000600052602260045260246000fd5b60006002820490506001821680612b3f57607f821691505b602082108103612b5257612b51612af8565b5b50919050565b7f4552433732313a20617070726f76656420717565727920666f72206e6f6e657860008201527f697374656e7420746f6b656e0000000000000000000000000000000000000000602082015250565b6000612bb4602c8361252f565b9150612bbf82612b58565b604082019050919050565b60006020820190508181036000830152612be381612ba7565b9050919050565b7f4552433732313a20617070726f76616c20746f2063757272656e74206f776e6560008201527f7200000000000000000000000000000000000000000000000000000000000000602082015250565b6000612c4660218361252f565b9150612c5182612bea565b604082019050919050565b60006020820190508181036000830152612c7581612c39565b9050919050565b7f4552433732313a20617070726f76652063616c6c6572206973206e6f74206f7760008201527f6e6572206e6f7220617070726f76656420666f7220616c6c0000000000000000602082015250565b6000612cd860388361252f565b9150612ce382612c7c565b604082019050919050565b60006020820190508181036000830152612d0781612ccb565b9050919050565b7f4552433732313a207472616e736665722063616c6c6572206973206e6f74206f60008201527f776e6572206e6f7220617070726f766564000000000000000000000000000000602082015250565b6000612d6a60318361252f565b9150612d7582612d0e565b604082019050919050565b60006020820190508181036000830152612d9981612d5d565b9050919050565b7f4e487b7100000000000000000000000000000000000000000000000000000000600052603260045260246000fd5b7f4e487b7100000000000000000000000000000000000000000000000000000000600052601160045260246000fd5b6000612e098261263b565b91507fffffffffffffffffffffffffffffffffffffffffffffffffffffffffffffffff8203612e3b57612e3a612dcf565b5b600182019050919050565b7f455243373231456e756d657261626c653a206f776e657220696e646578206f7560008201527f74206f6620626f756e6473000000000000000000000000000000000000000000602082015250565b6000612ea2602b8361252f565b9150612ead82612e46565b604082019050919050565b60006020820190508181036000830152612ed181612e95565b9050919050565b7f4552433732314275726e61626c653a2063616c6c6572206973206e6f74206f7760008201527f6e6572206e6f7220617070726f76656400000000000000000000000000000000602082015250565b6000612f3460308361252f565b9150612f3f82612ed8565b604082019050919050565b60006020820190508181036000830152612f6381612f27565b9050919050565b7f455243373231456e756d657261626c653a20676c6f62616c20696e646578206f60008201527f7574206f6620626f756e64730000000000000000000000000000000000000000602082015250565b6000612fc6602c8361252f565b9150612fd182612f6a565b604082019050919050565b60006020820190508181036000830152612ff581612fb9565b9050919050565b7f4552433732313a206f776e657220717565727920666f72206e6f6e657869737460008201527f656e7420746f6b656e0000000000000000000000000000000000000000000000602082015250565b600061305860298361252f565b915061306382612ffc565b604082019050919050565b600060208201905081810360008301526130878161304b565b9050919050565b7f4552433732313a2062616c616e636520717565727920666f7220746865207a6560008201527f726f206164647265737300000000000000000000000000000000000000000000602082015250565b60006130ea602a8361252f565b91506130f58261308e565b604082019050919050565b60006020820190508181036000830152613119816130dd565b9050919050565b7f4f776e61626c653a2063616c6c6572206973206e6f7420746865206f776e6572600082015250565b600061315660208361252f565b915061316182613120565b602082019050919050565b6000602082019050818103600083015261318581613149565b9050919050565b7f4552433732314d657461646174613a2055524920717565727920666f72206e6f60008201527f6e6578697374656e7420746f6b656e0000000000000000000000000000000000602082015250565b60006131e8602f8361252f565b91506131f38261318c565b604082019050919050565b60006020820190508181036000830152613217816131db565b9050919050565b600081905092915050565b600061323482612524565b61323e818561321e565b935061324e818560208601612540565b80840191505092915050565b60006132668285613229565b91506132728284613229565b91508190509392505050565b7f4f776e61626c653a206e6577206f776e657220697320746865207a65726f206160008201527f6464726573730000000000000000000000000000000000000000000000000000602082015250565b60006132da60268361252f565b91506132e58261327e565b604082019050919050565b60006020820190508181036000830152613309816132cd565b9050919050565b7f4552433732313a206f70657261746f7220717565727920666f72206e6f6e657860008201527f697374656e7420746f6b656e0000000000000000000000000000000000000000602082015250565b600061336c602c8361252f565b915061337782613310565b604082019050919050565b6000602082019050818103600083015261339b8161335f565b9050919050565b7f4552433732313a207472616e736665722066726f6d20696e636f72726563742060008201527f6f776e6572000000000000000000000000000000000000000000000000000000602082015250565b60006133fe60258361252f565b9150613409826133a2565b604082019050919050565b6000602082019050818103600083015261342d816133f1565b9050919050565b7f4552433732313a207472616e7366657220746f20746865207a65726f2061646460008201527f7265737300000000000000000000000000000000000000000000000000000000602082015250565b600061349060248361252f565b915061349b82613434565b604082019050919050565b600060208201905081810360008301526134bf81613483565b9050919050565b60006134d18261263b565b91506134dc8361263b565b9250828210156134ef576134ee612dcf565b5b828203905092915050565b60006135058261263b565b91506135108361263b565b9250827fffffffffffffffffffffffffffffffffffffffffffffffffffffffffffffffff0382111561354557613544612dcf565b5b828201905092915050565b7f4552433732313a20617070726f766520746f2063616c6c657200000000000000600082015250565b600061358660198361252f565b915061359182613550565b602082019050919050565b600060208201905081810360008301526135b581613579565b9050919050565b7f4552433732313a207472616e7366657220746f206e6f6e20455243373231526560008201527f63656976657220696d706c656d656e7465720000000000000000000000000000602082015250565b600061361860328361252f565b9150613623826135bc565b604082019050919050565b600060208201905081810360008301526136478161360b565b9050919050565b7f4e487b7100000000000000000000000000000000000000000000000000000000600052601260045260246000fd5b60006136888261263b565b91506136938361263b565b9250826136a3576136a261364e565b5b828204905092915050565b60006136b98261263b565b91506136c48361263b565b9250826136d4576136d361364e565b5b828206905092915050565b600081519050919050565b600082825260208201905092915050565b6000613706826136df565b61371081856136ea565b9350613720818560208601612540565b61372981612573565b840191505092915050565b60006080820190506137496000830187612611565b6137566020830186612611565b613763604083018561270a565b818103606083015261377581846136fb565b905095945050505050565b60008151905061378f81612495565b92915050565b6000602082840312156137ab576137aa61245f565b5b60006137b984828501613780565b91505092915050565b7f4552433732313a206d696e7420746f20746865207a65726f2061646472657373600082015250565b60006137f860208361252f565b9150613803826137c2565b602082019050919050565b60006020820190508181036000830152613827816137eb565b9050919050565b7f4552433732313a20746f6b656e20616c7265616479206d696e74656400000000600082015250565b6000613864601c8361252f565b915061386f8261382e565b602082019050919050565b6000602082019050818103600083015261389381613857565b9050919050565b7f4e487b7100000000000000000000000000000000000000000000000000000000600052603160045260246000fdfea2646970667358221220e9c2d6a11417349f90632968eb54eee7450bba1152ea020ac953bbada984515864736f6c634300080e0033",
  "linkReferences": {},
  "deployedLinkReferences": {}
}